:08000000803102288731D92F5D
:10050C0001308231F9228231080028308231F922FF
:10051C00823108000C308231F92282310800FE0051
:10052C0012001E00FE0B962A0034523469347634C5
:10053C0065347234003441019A01033098009D01F6
:10054C00843093000800013041019E0000324101CB
:10055C0013141318B22AB32AAF2A0D08F3000C088F
:10056C00F2007308F1007208F0000800F80078033C
:10057C00031DC12AC22AC62A7708FF3EF900C92AE0
:10058C0077083F3EF9007908803E8231F9228231AA
:10059C000800033041019E0000324101131413186E
:1005AC00D82AD92AD52A0D08F3000C08F2007308B2
:1005BC00F1007208F0000800F9000830FA00790325
:1005CC00031DE92AEA2AEB2A7A157703031DEF2A81
:1005DC00F02AF42A0330F8007808FA047A088231F9
:1005EC00F92282310800F6007608F3000430F33665
:1005FC00890BFD2A73080F39F40076080F39F500C2
:10060C00400190107408843149248231750884317A
:10061C00492482310800F6007608F3000430F336E2
:10062C00890B152B73080F39F40076080F39F50078
:10063C004001901474088431492483317508843145
:10064C004924833108000A307E01B800FA30400199
:10065C0091007E01C301FE30400192007E01CE016B
:10066C00400193017E01D9010F30400194007E01BD
:10067C00E401EC30400195000800543465346D34CD
:10068C0070343A3420342034203420342034203454
:10069C0064346534673443340034203420342034DB
:1006AC00203420342034203420342034203420349E
:1006BC0025340034F401F501701C652B662B6A2B74
:1006CC007208F4077308F53D0130F235F30D890B10
:1006DC006B2B0130F136F00C890B702B7008710408
:1006EC00031D792B7A2B622B7508F1007408F0002E
:1006FC0008001430FB007A30890B822BFB0B822B09
:10070C0003308231F92283310730FB007D30890BB5
:10071C008D2BFB0B8D2B000002308231F9228331A3
:10072C0082318B228331F70101308231E222833115
:10073C008231902283318231862283310800443405
:10074C0061346D342034573461347434653472340C
:10075C0020344C346534763465346C343A3400349B
:10076C0053343334203466346F3472342034573479
:10077C00613474346534723420344C3476346C34D3
:10078C00003450347234653473347334533432342B
:10079C00203466346F3472342034543465346D3400
:1007AC00703400344001200821040319DE2BDF2BA8
:1007BC00082CA501A50AEB2B0130A035A10D890B46
:1007CC00E32B0130A4002408A507A11FEE2BEF2B6F
:1007DC00E22B21082302031DF52B20082202031C07
:1007EC00F82BF92BFD2B2008A2022108A33B01308A
:1007FC00A136A00C890BFE2B0130A502031D072C82
:10080C00082CEF2B2308A1002208A0000800FB01F4
:10081C00FC01760877040319142C152C442CFD01CB
:10082C00FD0A212C0130F635F70D890B192C0130FE
:10083C00FA007A08FD07F71F242C252C182C013000
:10084C00FB35FC0D890B262C77087902031D302C07
:10085C0076087802031C332C342C392C7608F802D9
:10086C007708F93B7B140130F736F60C890B3A2CE0
:10087C000130FD02031D432C442C252C7C08F70071
:10088C007B08F6000800F2007208F0000330F03626
:10089C00890B4D2C70080139F100F10CF10C400161
:1008AC000F0871067F3971068F007208F000023054
:1008BC00F036890B5E2C70080139F100F10EF10D48
:1008CC00F10D0F087106BF3971068F0072360139B0
:1008DC00F000F00EF00D0F087006DF3970068F0077
:1008EC0072080139F000F00E0F087006EF3970062F
:1008FC008F001014C8300032890B812C400110106D
:10090C00C8300032890B872C08004001A101FC1F64
:10091C00902C912C982CFB09FC09FB0A0319FC0A5E
:10092C00A101A10AFA1F9B2C9C2CA12CF909FA09F4
:10093C00F90A0319FA0A79087A040319A62CA72CC8
:10094C00D02CA001A00AB32C0130F935FA0D890B7B
:10095C00AB2C0130FD007D08A007FA1FB62CB72C7C
:10096C00AA2C7A087C02031DBD2C79087B02031C7F
:10097C00C02CC12CC52C7908FB027A08FC3B013039
:10098C00FA36F90C890BC62C0130A002031DCF2CB2
:10099C00D02CB72C21080319D42CD52CDA2CFB091C
:1009AC00FC09FB0A0319FC0A7C08FA007B08F90015
:1009BC000800F601F11FE32CE42CEB2CF009F109F3
:1009CC00F00A0319F10AF601F60AF31FEE2CEF2CCC
:1009DC00F82CF209F309F20A0319F30A0130F400B6
:1009EC007408F606F701F801700871040319FF2C5E
:1009FC00002D2F2DF501F50A0C2D0130F035F10DE0
:100A0C00890B042D0130F4007408F507F11F0F2D2C
:100A1C00102D032D0130F735F80D890B112D7108B0
:100A2C007302031D1B2D70087202031C1E2D1F2D3B
:100A3C00242D7008F2027108F33B77140130F13663
:100A4C00F00C890B252D0130F502031D2E2D2F2DB9
:100A5C00102D76080319332D342D392DF709F8098B
:100A6C00F70A0319F80A7808F1007708F000080073
:100A7C008231CF22853170084001A2007108A30099
:100A8C008231CF228531710840012306031D502D80
:100A9C0070082206031D532D542DE32D8231CF22D5
:100AAC00853171084001A5007008A4000A30F600D9
:100ABC000030F7002508F9002408F80084310D24D3
:100ACC00853177084001AB007608AA000A30F9009E
:100ADC000030FA002B08FC002A08FB0084318B2420
:100AEC00853179084001A6000A30F9000030FA007F
:100AFC000A30F0000030F1002B08F3002A08F20055
:100B0C008431DF2485317108FC007008FB008431CE
:100B1C008B24853179084001A7000A30F900003098
:100B2C00FA006430F0000030F1002B08F3002A08C2
:100B3C00F2008431DF2485317108FC007008FB0061
:100B4C0084318B24853179084001A8000A30F900E2
:100B5C000030FA00E830F0000330F1002B08F3000D
:100B6C002A08F2008431DF2485317108FC007008FA
:100B7C00FB0084318B24853179084001A9000830B1
:100B8C00F70002308231BC22853140012908303E09
:100B9C0083311123853140012808303E83311123E4
:100BAC00853140012708303E8331112385314001C6
:100BBC002608303E83311123853108008231A92269
:100BCC00853170084001A6007108A7008231A92266
:100BDC008531710840012706031DF62D7008260685
:100BEC00031DF92DFA2D972E8231A922853171081A
:100BFC004001A9007008A800FF30F6000330F70090
:100C0C002908F1002808F000F430F2000130F3005C
:100C1C008331602385317108F9007008F800843144
:100C2C000D24853177084001AF007608AE000A30FC
:100C3C00A0000030A1002F08A3002E08A2008331D1
:100C4C00D823853140012008AA000A30A0000030CA
:100C5C00A1000A30F6000030F7002F08F9002E082A
:100C6C00F80084310D24853177084001A300760803
:100C7C00A2008331D823853140012008AB000A3013
:100C8C00A0000030A1006430F6000030F7002F08FF
:100C9C00F9002E08F80084310D24853177084001C5
:100CAC00A3007608A2008331D823853140012008A7
:100CBC00AC000A30A0000030A100E830F600033090
:100CCC00F7002F08F9002E08F80084310D24853127
:100CDC0077084001A3007608A2008331D823853120
:100CEC0040012008AD000830F70002308231BC22F0
:100CFC00853140012D08303E83311123853140016F
:100D0C002C08303E83311123853140012B08303EB5
:100D1C0083311123853140012A08303E8331112360
:100D2C00853108008331292386318231A122863115
:100D3C00423086000130870031308400003085005D
:100D4C0011304001B00016001A00B00BA92E313042
:100D5C00860001308700423084000030850011305D
:100D6C00B00016001A00B00BB72E83317F238631EA
:100D7C00F701F70A01308231BC2286314101C301EF
:100D8C00C401D52E4308313E86008701010883310A
:100D9C001123863101304101C3070030C43D4308A3
:100DAC00313E860087010108031DDD2EDE2EC82E84
:100DBC00F701F70A02308231BC2286314101C301AE
:100DCC00C401F52E4308423E860087010108833199
:100DDC001123863101304101C3070030C43D430863
:100DEC00423E860087010108031DFD2EFE2EE82ED3
:100DFC0040018D18022F032F6B2F643086000030BA
:100E0C008700BD308400003085000630B00016002D
:100E1C001A00B00B0D2FC930860000308700A030AF
:100E2C008400003085001030B00016001A00B00BA2
:100E3C001B2F83312923863183317F238631F701A0
:100E4C00F70A01308231BC2286314101C501C6014D
:100E5C003C2F4508BD3E86008701010883311123D4
:100E6C00863101304101C5070030C63D4508BD3E05
:100E7C00860087010108031D442F452F2F2FF701F2
:100E8C00F70A02308231BC2286314101C501C6010C
:100E9C005C2F4508A03E8600870101088331112391
:100EAC00863101304101C5070030C63D4508A03EE2
:100EBC00860087010108031D642F652F4F2F400109
:100ECC008C018531E4258631672F0D196E2F6F2F1C
:100EDC00FE2E203086000130870053308400003015
:100EEC0085001130B00016001A00B00B792FD930E4
:100EFC00860000308700B0308400003085000D3053
:100F0C00B00016001A00B00B872F833129238631CD
:100F1C0083317F238631F701F70A01308231BC22FD
:100F2C0086314101C701C801A82F4708533E8600EE
:100F3C008701010883311123863101304101C70734
:100F4C000030C83D4708533E860087010108031D49
:100F5C00B02FB12F9B2FF701F70A02308231BC2240
:100F6C0086314101C701C801C82F4708B03E860031
:100F7C008701010883311123863101304101C707F4
:100F8C000030C83D4708B03E860087010108031DAC
:100F9C00D02FD12FBB2F40018C0185313E258631BE
:100FAC00D32F803102289B3084008230850064303E
:100FBC00860000308700063082319522873143301D
:100FCC00840083308500C9308600003087001D30D6
:100FDC00823195228731A530840083308500203002
:100FEC0086000130870033308231952287314001F1
:040FFC008631982E74
:020000040001F9
:02000E00F93FB8
:040012009F3FFF1FEE
:00000001FF
